:020000040800F2
:10000000A806002001010008291F0008B11A0008F5
:10001000211E00081F0700085925000800000000E5
:100020000000000000000000000000004D1F00085C
:10003000ED080008000000004B1F00084F1F0008DB
:100040001B0100081B0100081B0100081B01000820
:100050001B0100081B0100081B0100081B01000810
:100060001B0100081B0100081B0100081B01000800
:100070001B0100081B0100081B0100081B010008F0
:100080001B0100081B0100081B0100081B010008E0
:100090001B0100081B0100081B0100081B010008D0
:1000A0001B0100080D2000081B0100081B010008AF
:1000B0001B0100081B0100081B0100081B010008B0
:1000C0001B0100081B0100081B0100081B010008A0
:1000D0001B0100084D2500081B0100081B0100083A
:1000E0001B0100081B0100081B010008DFF80CD0F1
:1000F00000F0B2FA00480047B9270008A80600201F
:100100000648804706480047FEE7FEE7FEE7FEE7B1
:10011000FEE7FEE7FEE7FEE7FEE7FEE7C51F000895
:10012000ED000008202A04DB203A21FA02F0002129
:10013000704721FA02F3D040C2F1200291400843F7
:1001400019467047D2B201E000F8012B491EFBD2DC
:1001500070470022F6E710B513460A4604461946D2
:10016000FFF7F0FF204610BD30B505462A460B4686
:1001700012F8010B13F8014B08B1A042F8D01CB1E2
:10018000002802D06D1CF1E7284630BD2DE9FE4F56
:10019000804681EA0300C00F0C46009021F0004128
:1001A00023F00045B8EB0200A94105D240462146A4
:1001B00090461C460B46024623F00040104347D0B1
:1001C000270DC7F30A00C3F30A510290401A0190A9
:1001D00040286BDAC3F3130040F4801B009892466A
:1001E00020B10023D2EB030A63EB0B0B01985946B5
:1001F000C0F14002504600F012F906460D46504646
:100200005946019A00F01AF910EB080061410024E8
:1002100087EA115284EAE7731A4340D0009A62B326
:10022000019A012A4FEA075215DC001B61EB02011B
:100230004FF0004202EA0752CDE90042001C41F5AE
:10024000801132462B4600F01AF903B0BDE8F08F5A
:1002500040462146F9E7001B61EB0201001C41F515
:10026000801300185B412018A2F5001747EB03012B
:1002700040EAD570B6196D4111E06D084FEA3606B7
:1002800045EAC0754FEA0752001B61EB0201001CF2
:1002900041F5801149084FEA3000001951413246BA
:1002A0002B4603B0BDE8F04F00F0DAB80098012209
:1002B00040000023D0EB020263EBE073009821467C
:1002C0004FEAE074B8EB000061EB0401E9E783F06A
:1002D00000435BE781F0004158E72DE9FE4F81EADA
:1002E000030404F0004421F0004100944FF0000B9F
:1002F00023F0004350EA01045ED052EA03045BD0CD
:10030000C3F30A54C1F30A552C44A4F2F334019404
:10031000A0FB0254C1F3130141F48011C3F3130392
:1003200043F4801301FB024400FB034E840A970A46
:1003300044EA815447EA8357A4FB076802958D0A73
:1003400005FB07854FEA932C04FB0C542705029DFF
:100350004FEA065847EA1637B5EB08056EEB070C6F
:10036000870E920E47EA811742EA8312A7FB020129
:10037000B6EB0B0164EB00042B0D43EA0C335E1863
:1003800044EB1C50DA465146E7FB0201C5F3130467
:100390004FEA0B3343EA14534FEA0432019C43EA19
:1003A0000603A4F10C040294009CCDE900B400F013
:1003B00066F803B0BDE8F08F00200146F9E70EB5FE
:1003C000C10F80EAE0700844CA07002140F23343BD
:1003D0008DE80E000A460B4600F051F803B000BD50
:1003E00070B5C1F30A5201F000450024C1F31301B6
:1003F00040F2FF3341F480119A4201DA002070BDCF
:1004000040F233439A42A2F2334203DC5242FFF7F6
:1004100089FE00E090402C43F1D0404270BD202A7C
:1004200004DB203A00FA02F1002070479140C2F14B
:10043000200320FA03F3194390407047202A06DB7B
:10044000CB17203A41FA02F043EAE07306E041FAA2
:1004500002F3D040C2F12002914008431946704790
:1004600010B5141E73F1000408DA401C41F10001BC
:1004700092185B411A4301D120F0010010BD2DE913
:10048000F04D92469B4611B1B1FA81F202E0B0FA0A
:1004900080F220329046FFF7C2FF04460F4640EA42
:1004A0000A0041EA0B0153465A46084313D011464D
:1004B00053EA010019D0C8F140025046FFF732FE5E
:1004C00005460E46504659464246FFF7A8FF0843E8
:1004D00005D0012004E020463946BDE8F08D00201B
:1004E000054346EAE0762C4337430A986305E40A5D
:1004F000A0EB08000022FD0A44EA47540A3002D566
:1005000000200146E9E7010510196941DDE90845C8
:1005100000196941BDE8F04DA2E72DE9F04D81EAEF
:10052000030404F0004B21F0004514464FF0000A8C
:1005300023F0004150EA050220D054EA01021DD008
:10054000C5F30A570246C5F31303C1F31300C1F301
:100550000A5640F4801543F48013A7EB0608101BDD
:10056000D64608F2FD3873EB050002D308F1010806
:1005700001E092185B41B8F1000F03DA0020014658
:10058000BDE8F08D00204FF48011064684460EE051
:10059000171B73EB050705D3121B63EB050306431B
:1005A0004CEA010C49084FEA300092185B4150EACE
:1005B0000107EDD152EA030012D082EA040083EA77
:1005C0000501084305D0101BAB4106D201220023D0
:1005D00006E000224FF0004302E06FF001025310EA
:1005E0001AEB06004CEB085110EB0A0041EB0B0133
:1005F000BDE8F04DFFF734BF70B521F00043034371
:100600000CD0C1F30A550024D5EB040564EB0403B8
:10061000D617AD1AB34102DB0020014670BD201889
:1006200041EB025170BD000030B5041E71F10004B1
:1006300004DB4FF00044404264EB0101141E73F1EF
:10064000000405DB1C464FF00043524263EB0403F9
:10065000994208BF904230BD064C074D06E0E06865
:1006600040F0010394E8070098471034AC42F6D3F9
:10067000FFF740FDC0340008E03400082DE9F04DDC
:1006800000231A461B1A8A4103DB00200146BDE8FD
:10069000F08DC1F30A52C1F3130141F480154FF0FC
:1006A000000BD10702D100186D41521E00270446ED
:1006B00040F2FF11384601EB620A3E468046024690
:1006C00000204FF48011FFF72DFDC2197141BB18B6
:1006D00046EB0100B4EB030C75EB000C04D3E41AF9
:1006E00065EB000517460E46241908F101006D411F
:1006F00080463428E3DDF91946EB0600091BA841C2
:1007000003D24FF0FF32134601E0002213461BEBE9
:10071000070046EB0A51BDE8F04DFFF7A1BEFEE72A
:100720002DE9F04155480024018809047DD50026B3
:10073000066053A15348FFF717FD534D07005BD0E8
:1007400052A253A101F0C4FF30B1EE616860287875
:10075000012400F0FE0028604CA24EA1384601F0B2
:10076000B7FF38B12E62A860287844F0020400F088
:10077000FD00286045A248A1384601F0A9FF38B124
:100780006E62E860287844F0040400F0FB00286002
:100790003EA242A1384601F09BFF38B1AE6228610B
:1007A000287844F0080400F0F700286037A23CA144
:1007B000384601F08DFF38B1EE626861287844F068
:1007C000100400F0EF00286030A236A1384601F096
:1007D0007FFF38B12E63A861287844F0200400F030
:1007E000DF00286030A231A1384601F071FF0146D8
:1007F000204602F0D5FD0CE02DA12248FFF7B4FC05
:1008000080B1EE612E626E62AE62EE62FF202E63F8
:10081000286029A001F0A2FEBDE8F041642119483A
:10082000FFF797BC25A1174800E025E0FFF79CFCE7
:1008300030B12868FF2801D022A0EBE723A0E9E728
:1008400024A11048FFF790FCA0B124A10D48FFF7A8
:100850008BFC4178224831290AD030290CD1002262
:10086000082100F083F914A0BDE8F04101F076BE44
:100870000122F5E71BA0F7E7BDE8F0813800002072
:10088000473000006401002000000020200000002C
:10089000314D0000324D0000334D0000344D00005A
:1008A000354D0000364D00000A000000465600009D
:1008B00047323033000000004F4B0A004D323030D9
:1008C000000000004F4B2056310A00004F4B2056CD
:1008D000300A0000473230310000000044000000C0
:1008E000000C01404552524F520A00007047000070
:1008F00010B590F821100024022903D0042181634F
:1009000001243DE001680A6822F00E020A600168D5
:100910000A6822F001020A601A4A0168914201D174
:10092000012121E0174A1432914201D110211BE02C
:10093000144A2832914201D1891515E0114A3C32FE
:10094000914201D189140FE00E4A5032914202D1F6
:100950004FF4803108E00B4A6432914202D14FF4E7
:10096000801101E04FF08071064A083A5160012180
:1009700080F82110002180F82010416B01B18847D8
:10098000204610BD0800024031B500F0F5F8009C8B
:100990000546601C00D0641C00F0EEF8401BA0422D
:1009A000FAD338BD2DE9F84FDFF8A091002309F103
:1009B000040A0AF1040B1C464FF00F080BF1040E59
:1009C00001270A68A7403A40BA4272D1DFF880C1D5
:1009D0004D68A5EB0C0665452BD00DDC032D34D0FE
:1009E00005DC35B3012D19D0022D2FD11BE0112DBF
:1009F00016D0122D2AD119E0B6F5881F19D006DCC1
:100A0000B6F5803F15D0B6F5801F1FD111E0B6F5C1
:100A1000001F0ED0B6F5041F18D10AE0CB6815E010
:100A2000CB681B1D12E0CB6808330FE0CB680C339A
:100A30000CE08B682BB1012B4FF0080303D047610A
:100A400004E0042302E0076100E00023FF2A01D84C
:100A5000064601E000F104064FEA840501D9A5F13C
:100A60002005376808FA05FC27EA0C0703FA05F5A4
:100A700047EA050737604D68ED0060D5354DAE6932
:100A800046F00106AE61AD6924F0030605F00105EC
:100A90000095314D7719BE68A5072D0F08FA05FCA2
:100AA00026EA0C06DFF8B4C0604503D14FF0000C15
:100AB00017E044E0DFF8A8C0604502D14FF0010C18
:100AC0000FE0DFF8A0C0604502D14FF0020C08E053
:100AD000DFF894C0604502D14FF0030C01E04FF005
:100AE000040C0CFA05FC4CEA060CC7F808C04D686B
:100AF000D9F80060ED034D4601D5164300E096435A
:100B00002E604D68DAF80060AD03554601D51643F6
:100B100000E096432E604D68DBF80060ED025D4614
:100B200001D5164300E096432E604D68DEF8006064
:100B3000AD02754601D5164300E096432E60641C55
:100B4000102CFFF43DAFBDE8F88F00000004014019
:100B50000000111000100240000001400008014098
:100B6000000C014000100140001401400AB1016175
:100B700070470904FBE70000014800687047000067
:100B80003C00002002480168491C016070470000D9
:100B90003C000020074810B5016841F010010160D9
:100BA000032000F093F8002000F006F800F018F899
:100BB000002010BD0020024010B5044607484FF445
:100BC0007A710068B0FBF1F000F01DFB00222146B5
:100BD000501E00F05BF8002010BD00004000002017
:100BE000224808B5816941F001018161816901F004
:100BF00001010091C16941F08051C161C06900F0FB
:100C000080500090032000F061F8002211466FF040
:100C10000B0000F03BF8002211466FF00A0000F0D4
:100C200035F8002211466FF0090000F02FF800227D
:100C30001146501F00F02AF800221146101F00F044
:100C400025F800221146901E00F020F800221146DF
:100C5000501E00F01BF80648416821F0E061416039
:100C6000416841F00071416008BD00000010024081
:100C70000000014000F01F02012191404009800066
:100C800000F1E020C0F8001170470000F0B40E4BF6
:100C90001B68C3F30223C3F10704042C00D9042406
:100CA0001D1D072D01D2002300E0DB1E012606FAE0
:100CB00004F56D1E0D409D409E40761E164045EA8F
:100CC0000601F0BC01F031B90CED00E0064A00F07D
:100CD000070110684FF6FF03184040EA012003495E
:100CE00008431060704700000CED00E00000FA05BA
:100CF0002DE9F047DFF8348104460E46D8F80000AD
:100D000000F00700B0420CD2D8F8001021F0070123
:100D10003143C8F80010D8F8000000F00700B042D6
:100D200060D12078424F800705D57868A16820F00F
:100D3000F000084378602078C00742D0606801283E
:100D400016D03968022816D0890700294ADA79684E
:100D500021F0030101437960FFF70EFF054660684B
:100D600041F2883101280ED00228894617D024E0AC
:100D700039688903E9E78901E7E7FFF7FDFE411BD1
:100D8000494501D916E089467868C0F381000128F9
:100D9000F3D116E0FFF7F0FE411B49450AD8786809
:100DA000C0F381000228F5D10BE0FFF7E5FE411BFF
:100DB000494502D90320BDE8F087786810F00C0F90
:100DC000F3D1D8F80010404601F00701B1420BD929
:100DD000016821F0070131430160006800F007005D
:100DE000B04201D00120E6E72078400705D57868B9
:100DF000E16820F4E060084378602078000706D5B9
:100E00007868216920F4605040EAC100786000F001
:100E10003BF87968074AC1F30311515CC8400649A1
:100E200008600020FFF7C8FE0020C4E70020024051
:100E300000100240143400084000002001480068FF
:100E400070470000400000200448054900684968D8
:100E5000044AC1F30221515CC840704740000020A1
:100E6000001002402434000804480549006849681D
:100E7000044AC1F3C221515CC840704740000020C1
:100E8000001002402434000810B512A085B00FC82D
:100E90008DE80F0013A0144B0068049059681348A4
:100EA00001F00C02042A0FD0082A0DD1C1F38344AB
:100EB000C9031DF8042009D5596804ABC1F34041AA
:100EC000595CB0FBF1F0504305B010BD08485043E9
:100ED000FAE7000002030405060708090A0B0C0DD7
:100EE0000E0F1010010200000010024000127A00E4
:100EF00000093D002DE9F84F04460078B64DC007C3
:100F000047D06868C0F38100012807D06868C0F343
:100F10008100022809D16868C00306D528688003CB
:100F200037D5606800286ED033E06068B0F5803F48
:100F30000BD010B1B0F5A02F11D0286820F480306C
:100F40002860286820F4802002E0286840F480307F
:100F50002860606888B1FFF70FFE064609E0286840
:100F600040F480202860F0E7FFF706FE801B64282D
:100F700073D828688003F7D50BE0FFF7FDFD064620
:100F800004E0FFF7F9FD801B6428F1D8286880038E
:100F9000F7D42078DFF8448280074FF0010A4FF041
:100FA000000939D5686810F00C0F07D06868C0F3E5
:100FB0008100022809D16868C00306D42868800728
:100FC00013D5206901281ED10FE02069A8B1C8F807
:100FD00000A0FFF7D1FD064604E0FFF7CDFD801B22
:100FE0000228C5D828688007F7D52868616920F0ED
:100FF000F80040EAC10028600EE0C8F80090FFF752
:10100000BBFD064605E0E5E0FFF7B6FD801B0228C4
:1010100023D828688007F7D4207800072CD570499A
:10102000A069D8B1C1F800A0FFF7A6FD064604E00C
:10103000FFF7A2FD801B02280FD8686A8007F7D54A
:1010400068484FF4FA510068B0FBF1F0009000BF1F
:101050000098411E0091FAD20EE07CE0C1F80090A9
:10106000FFF78AFD064604E0FFF786FD801B022895
:1010700071D8686A8007F7D4207840075BD5E869A3
:101080000027C00008D4E86940F08050E861E869B2
:10109000012700F08050009053480168C90511D421
:1010A0000168834641F480710160FFF765FD0646E3
:1010B00004E0FFF761FD801B64284CD8DBF80000DA
:1010C000C005F6D5E06801280AD008B1052813D07C
:1010D000286A20F001002862286A20F0040002E05B
:1010E000286A40F001002862E06841F2883B88B13C
:1010F000FFF742FD064609E0286A40F00400286236
:10110000EEE7FFF739FD811B59455BD8286A800758
:10111000F7D50BE0FFF730FD064604E0FFF72CFDA6
:10112000811B59454ED8286A8007F7D41FB1E8695A
:1011300020F08050E861E069A8B36968C1F38101DB
:10114000022947D00228484606D0C8F86000FFF7B9
:1011500013FD044639E035E04746C8F86000FFF764
:101160000BFD064604E0FFF707FD801B022829D887
:1011700028688001F7D4206AB0F5803F05D16868FF
:10118000A16820F4003008436860D4E908010843EE
:10119000696821F4741108436860C7F860A0FFF71C
:1011A000EBFC044605E013E0FFF7E6FC001B022819
:1011B00008D828688001F7D50AE0FFF7DDFC001B9E
:1011C000022802D90320BDE8F88F28688001F4D4F2
:1011D0000020F8E70120F6E700100240000042423C
:1011E0008004424240000020007000404FF0E021A7
:1011F0000428086903D020F004000861704740F01B
:101200000400FAE7704710B5401EB0F1807F01D3AB
:10121000012010BD4FF0E02460610F21601700F045
:1012200084FE0020A06107202061002010BD10B5C1
:10123000FFF7E8FF10BD7047704730B590F83C20CD
:10124000012A20D0012380F83C30022280F83D2082
:101250000268546824F070045460026854680D6891
:101260002C4354600268946824F0800494600268FF
:10127000946849680C43946080F83D30002180F800
:101280003C10084630BD022030BD10B5040003D02C
:1012900094F83D0010B107E0012010BD002084F853
:1012A0003C00204600F00CF8022084F83D00211D8F
:1012B000206800F0B1FE012084F83D00002010BD40
:1012C00008B500680649884208D10648816941F49A
:1012D00000618161806900F40060009008BD000039
:1012E000002C0140001002400168CA6842F001026F
:1012F000CA600068016841F0010101600020704788
:1013000070B5044690F83C00012817D0012584F8F8
:101310003C50022084F83D002068826822F0770269
:1013200022F47F4282600868502836D00DDC2028E5
:1013300058D005DC80B3102840D150E0022070BDA9
:10134000302852D0402839D13EE060282DD0702876
:101350000BD0B0F5805F03D0B0F5005F2ED110E068
:101360002068816821F0070109E0CB68D1E90121FB
:10137000206800F092FE2068816841F0770181606A
:101380001CE0CB68D1E90121206800F086FE2068CE
:10139000816841F48041F2E71EE0CA68496820682C
:1013A00000F036FF5021206806E0CA6849682068CE
:1013B00000F03FFF6021206800F079FE84F83D5086
:1013C000002084F83C0070BDCA684968206800F0BD
:1013D0001FFF40212068EFE700212068ECE7102183
:1013E0002068E9E720212068E6E730212068E3E76C
:1013F000704770B50446006801694FF00005C943A5
:10140000890715D4C168C943890711D4E91E016150
:1014100001202077206880698007204602D0FFF7EE
:10142000E7FF04E000F0C8F8204600F075F92577E2
:1014300020680169C943490717D4C168C9434907EE
:1014400013D46FF0040101610220207720688069C5
:1014500010F4407F204602D0FFF7CAFF04E000F0FE
:10146000ABF8204600F058F9257720680169C94398
:10147000090716D4C168C943090712D46FF00801DF
:101480000161042020772068C0698007204602D0CF
:10149000FFF7AEFF04E000F08FF8204600F03CF9C3
:1014A000257720680169C943C90617D4C168C943B3
:1014B000C90613D46FF0100101610820207720685D
:1014C000C06910F4407F204602D0FFF791FF04E08E
:1014D00000F072F8204600F01FF9257720680169B6
:1014E000C943C90708D1C168C943C90704D1891EC6
:1014F0000161204600F02AF920680169C943090604
:1015000009D4C168C943090605D46FF0800101619F
:101510002046FFF790FE20680169C943490609D4B7
:10152000C168C943490605D46FF0400101612046F6
:1015300000F016F920680169C94389060BD4C16817
:10154000C943890607D46FF0200101612046BDE838
:101550007040FFF771BE70BD7FB50168022412486C
:10156000B1F1804F0CD0114A114D914210D1C021E0
:10157000CDE9001469460394FFF714FA03200CE048
:101580000F21CDE9001469460394FFF70BFA7FBDE4
:1015900008488142FBD14FF47070CDE900046946E0
:1015A00028460394F1E700000008014000040040D1
:1015B000000C014000080040704770B5044690F8E8
:1015C0003C000D4601280DD0012684F83C60022025
:1015D00084F83D0042B1042A18D0082A2AD00C2AE7
:1015E0004DD139E0022070BD206800F069FD20680F
:1015F000816941F0080181612068816921F004015D
:101600008161206881692A69114311E0206800F036
:1016100083FD2068816941F40061816120688169EE
:1016200021F480618161206881692A6941EA02218F
:10163000816124E0206800F09DFD2068C16941F0CF
:101640000801C1612068C16921F00401C1612068FD
:10165000C1692A69114311E0206800F0B7FD2068D4
:10166000C16941F40061C1612068C16921F48061F0
:10167000C1612068C1692A6941EA0221C16184F817
:101680003D60002084F83C0070BD10B5040003D01C
:1016900094F83D0010B107E0012010BD002084F84F
:1016A0003C00204600F00CF8022084F83D00211D8B
:1016B000206800F0B1FC012084F83D00002010BD3E
:1016C00008B500681149B0F1804F0BD0104A904224
:1016D00010D1C86940F00200C861C86900F002007A
:1016E000009008BDC86940F00100C861C86900F0F9
:1016F0000100F5E7074A9042F3D1C86940F00400C1
:10170000C861C86900F00400EAE700000010024068
:1017100000040040000800407047000010B5044677
:101720000068012200F0AEFC07492068884203D11E
:10173000416C41F4004141642068016841F00101BD
:101740000160002010BD0000002C0140034900682A
:101750000968884201D101F099B8704764000020FF
:101760007047704770B5026804461068D1685369C5
:1017700010F00F0F51D003F0010501F490763543BE
:101780005DD0C20705D0CA0503D5E26B42F0010265
:10179000E263420705D5DA0703D0E26B42F00202AA
:1017A000E263820705D5DA0703D0E26B42F0040258
:1017B000E263020705D5DA0703D0E26B42F00802C4
:1017C000E263E26B002A34D0800604D5880602D595
:1017D000204600F056FD20684069E16BC0F38010A0
:1017E00001F008010143204624D000F03CFD2068B0
:1017F000416949061AD5416921F040014161606B98
:10180000A0B11B494163606BFFF772F8002810D04C
:10181000606B416BBDE87040084783060FD58B06AF
:101820000DD52046BDE8704000F02BBD2046FFF7E7
:1018300098FF70BDFFF795FF0020E06370BD0306C1
:1018400006D50B0604D52046BDE8704000F01CBE4E
:101850004006F3D54806F1D5D168204621F0400175
:10186000D160202184F8391000F021F970BD00000A
:101870005722000870B5040004D094F83900002500
:1018800010B106E0012070BD84F83850204600F009
:1018900023F8242084F839002068C16821F400511D
:1018A000C160204600F038FD2068016921F49041B4
:1018B00001612068416921F02A0141612068C16805
:1018C00041F40051C160E563202084F8390084F8B8
:1018D0003A00002070BD000010B50068114986B0C4
:1018E00088421DD11048816941F48041816180693D
:1018F0000E4C00F4804004904FF4007000900220E1
:1019000001900320039069462046FFF74BF821150C
:10191000009100210191029169462046FFF742F8AB
:1019200006B010BD00380140001002400008014020
:1019300090F83A30202B22D1F9B1F2B190F838303A
:10194000012B1CD081628285C2850021C1632222C5
:1019500080F83A2080F838100168CA6842F4807232
:10196000CA6001684A6942F001024A610068C168C0
:1019700041F02001C1600020704701207047022023
:101980007047000030B400681649884228D1164AD2
:101990005068010416D41146440409784FF000033E
:1019A00005D50A290DD140F4004050600AE00F4CE3
:1019B0000D290DD0C0F30D05401C61555060FF2866
:1019C00000DD536030BC012207490948FFF7B0BF72
:1019D00040F480405060C0F30D000A212154F1E72B
:1019E00030BC704700380140340000206401002002
:1019F000640200202DE9F843044690F839001E46A1
:101A000017460D46202850D1A5B19FB194F8380053
:101A100001284AD0012084F838004FF00008C4F8AB
:101A20003C80212084F83900FFF7A6F8A78481467E
:101A3000E78426E00120BDE8F883E08C401EE084C6
:101A4000A0684B46B0F5805F4FF000024FF0800178
:101A50002046009603D000F048FDE8B90DE000F004
:101A600044FDC8B928882168C0F30800486020698F
:101A700008B16D1C05E0AD1C03E0216815F8010BF1
:101A80004860E08C0028D8D14B46002240212046F7
:101A9000009600F02AFD08B10320CCE7202084F84E
:101AA000390084F838800020C5E70220C3E770477A
:101AB000FEE70000174810B5816986B041F02001AB
:101AC0008161816901F020010491816941F0040183
:101AD0008161816901F004010491816941F008018B
:101AE000816180690C4C00F00800049000220821FC
:101AF0002046FFF73BF808210091012101910021C8
:101B00000220CDE9021069462046FEF74BFF06B0E1
:101B100010BD000000100240000C014010B5194833
:101B200086B0174901604FF434710024C0E90114F4
:101B30004FF47A71C0E9031444618461FFF7A5FB97
:101B400018B1432110A000F008FD4FF48050009020
:101B500069460C48FFF7D4FB18B149210AA000F0F0
:101B6000FCFC049404A907480594FFF766FB0028D1
:101B700003D0502104A000F0F0FC06B010BD00001E
:101B8000002C0140640000202E2E2F5372632F740E
:101B9000696D2E630000000010B529488AB04FF02F
:101BA000804101604FF434710024C0E901146421C4
:101BB000C0E903148461FFF768FD18B1622121A018
:101BC00000F0CBFC079407A91D480894FFF735FBEC
:101BD00018B169211BA000F0C0FC6020CDE9000411
:101BE000042004900022694602941548FFF7E5FCA2
:101BF00018B1722113A000F0B0FC0422694610480D
:101C0000FFF7DBFC18B177210EA000F0A6FC08223C
:101C100069460B48FFF7D1FC18B17C2109A000F000
:101C20009CFC0C2269460648FFF7C7FC18B18121CD
:101C300004A000F092FC0248FFF78EFC0AB010BD31
:101C4000A40000202E2E2F5372632F74696D2E6313
:101C50000000000010B52A488AB0284901604FF4FE
:101C600034710024C0E901146421C0E903148461C3
:101C7000FFF70BFD18B1952122A000F06EFC079430
:101C800007A91F480894FFF7D8FA18B19C211DA096
:101C900000F063FC6020CDE90004042004900022E1
:101CA000694602941648FFF788FC18B1A52115A0D3
:101CB00000F053FC042269461148FFF77EFC18B17E
:101CC000AA2110A000F049FC082269460C48FFF741
:101CD00074FC18B1AF210BA000F03FFC0C22694648
:101CE0000748FFF76AFC18B1B42106A000F035FCE4
:101CF0000348FFF731FC0AB010BD000000040040AB
:101D0000E40000202E2E2F5372632F74696D2E6312
:101D10000000000010B52A488AB0284901604FF43D
:101D200034710024C0E901146421C0E90314846102
:101D3000FFF7ABFC18B1C82122A000F00EFC0794FD
:101D400007A91F480894FFF778FA18B1CF211DA002
:101D500000F003FC6020CDE9000404200490002280
:101D6000694602941648FFF728FC18B1D82115A03F
:101D700000F0F3FB042269461148FFF71EFC18B17E
:101D8000DD2110A000F0E9FB082269460C48FFF7AE
:101D900014FC18B1E2210BA000F0DFFB0C22694615
:101DA0000748FFF70AFC18B1E72106A000F0D5FBB1
:101DB0000348FFF7D1FB0AB010BD00000008004047
:101DC000240100202E2E2F5372632F74696D2E6311
:101DD000000000000D4810B50B4901604FF4E131DF
:101DE0004160002181600C22C160C0E90412816160
:101DF000C161FFF73FFD002805D0BDE81040452137
:101E000003A000F0AABB10BD00380140640200200E
:101E10002E2E2F5372632F75736172742E63000020
:101E2000FEE70000F0B43B4D3B4A4FF0000029684C
:101E30001368CC0701D0586305E0384C6E682468FD
:101E4000002E03DD5C631368986302E05863136837
:101E50009C638B0719D4314BAC68002C5B68146809
:101E600003DDE3631268106402E0E0631268136448
:101E70002B4A4B071BD4294BEC68002C9B68146839
:101E800006DD63631368986305E01368D863E9E7C8
:101E900060631468A3630B071CD4204B2C69002CCF
:101EA000DB68146806DDE3631268106405E01368FC
:101EB0005863E7E7E063126813641A4ACB061BD441
:101EC000164B6C69002C1B69146806DD636313688C
:101ED000986305E01368D863E6E760631468A3635A
:101EE000890613D40D49AB69002B4969136806DDD7
:101EF000D9631168086405E013685863E7E7D8639D
:101F000010680164F0BC0120FEF73EBD1168C86393
:101F1000EFE7000000000020240100204C0000201A
:101F2000A4000020E400002070470907090E0028E3
:101F300006DA00F00F0000F1E02080F8141D704771
:101F400000F1E02080F8001470477047704710B52A
:101F5000FEF718FEBDE81040FFF769B930B58FB045
:101F600001210804CDE90010002402940225049107
:101F7000CDE907504FF4E01009906846FEF7BAFF2C
:101F800000B1FEE70F20CDE90A054FF48060CDE9EE
:101F90000C4002210AA80E94FEF7AAFE00B1FEE74B
:101FA000FEF74CFF4FF47A71B0FBF1F0FFF72BF91D
:101FB0000420FFF71BF900221146501EFEF766FEB3
:101FC0000FB030BD0D48016841F00101016041686A
:101FD0000B4A1140416001680A4A114001600168E2
:101FE00021F480210160416821F4FE0141604FF439
:101FF0001F0181600449C00308607047001002405F
:102000000000FFF8FFFFF6FE08ED00E00148FFF7D3
:10201000F0B9000064000020F0B50268164C174DBE
:10202000174E4FF08047A04205D0B84203D0A842D7
:1020300001D0B04203D122F070034A681A43A04293
:1020400005D0B84203D0A84201D0B04203D122F457
:102050004073CA681A434B6922F08002134303603D
:102060008A68C2620A688262A04201D1096901637A
:1020700001214161F0BD0000002C0140000400403E
:102080000008004010B50123046A8B409C430462A1
:10209000036A8A401343036210BD10B5846842EAA4
:1020A000032224F47F440A432243826010BD8268E5
:1020B00022F070020A4342F007018160704700007D
:1020C00030B5026A22F001020262036A4268846942
:1020D00024F073050C682C4323F002058B682B4316
:1020E0000C4DA84206D123F00805CB6843EA05034E
:1020F00023F0040307D14D6922F4407245EA02053A
:102100008A6942EA05024260846149684163036268
:1021100030BD0000002C014030B5026A22F01002F0
:102120000262026A436884690D6824F4E64444EA62
:1021300005248D6822F0200242EA05120C4DA842C7
:1021400006D1CD6822F0800242EA051222F0400258
:1021500007D14D6923F4406343EA85038D6943EA5F
:1021600085034360846149688163026230BD000079
:10217000002C014030B5026A22F480720262036AC8
:102180004268C46923F4007324F073050C682C437F
:102190008D6843EA05230C4DA84206D1CD6823F48F
:1021A000006343EA052323F4806307D14D6922F4D9
:1021B000405242EA05128D6942EA05124260C4614A
:1021C0004968C163036230BD002C014030B5026A2A
:1021D00022F480520262036A4268C4690D6824F4E2
:1021E000E64444EA05248D6823F4005343EA0533AA
:1021F000064DA84204D14D6922F4804242EA85127C
:102200004260C46149680164036230BD002C014032
:1022100010B5046A036A23F001030362836923F0A3
:10222000F00343EA021324F00A020A4383610262C4
:1022300010BD10B5036A23F0100303628469036ABA
:1022400024F4704444EA023223F0A00343EA01116B
:102250008261016210BD10B5406A0021C185C18450
:10226000FFF77FFA10BD0168CA6822F49072CA6055
:1022700001684A6922F001024A61202180F83A107F
:10228000704710B590F83A10222901D0022010BDF5
:102290008168B1F5805F11D00169002901681FD004
:1022A000496801F07F03816A4A1C82620B70C18D0C
:1022B000491E0904090CC18518D02BE00269816A06
:1022C000002A0268526805D0D2B20A80816A491C8D
:1022D0008162ECE7C2F308020A80816A891CF7E791
:1022E0004A68816A4B1C83620A70E0E70168CA6829
:1022F00022F02002CA600168CA6822F48072CA60B3
:1023000001684A6922F001024A61202180F83A10EE
:10231000FFF738FB002010BD2DE9F04104460068AE
:102320000169E26821F4405111430161A16820690B
:102330000143606901432068C26841F20C639A431B
:102340000A43C26020684169A26921F440711143C7
:1023500041614C4920686426322788423CD1FEF70F
:1023600083FD00EBC00101EB001061688900B0FB48
:10237000F1F5FEF779FD00EBC00101EB001061689B
:10238000B8468900B0FBF1F0B0FBF6F06FF0180131
:10239000484305EB800107EB0110B0FBF6F000F0BD
:1023A000F005FEF761FD00EBC00101EB0010616874
:1023B0008900B0FBF1F0B0FBF6F005EB0015FEF77D
:1023C00053FD00EBC00101EB001061688900B0FB18
:1023D000F1F7FEF749FD3BE0FEF736FD00EBC001EB
:1023E00001EB001061688900B0FBF1F5FEF72CFDF0
:1023F00000EBC00101EB00106168B8468900B0FB3A
:10240000F1F0B0FBF6F06FF01801484305EB8001E6
:1024100007EB0110B0FBF6F000F0F005FEF714FD3D
:1024200000EBC00101EB001061688900B0FBF1F026
:10243000B0FBF6F005EB0015FEF706FD00EBC00162
:1024400001EB001061688900B0FBF1F7FEF7FCFCBE
:1024500000EBC00101EB001061688900B0FBF1F0F6
:10246000B0FBF6F06FF01801484307EB800108EB72
:102470000110B0FBF6F0216800F00F0028448860DE
:10248000BDE8F0810038014090F83910212901D0D1
:10249000022070478168B1F5805F016A0BD04A1C49
:1024A0000262026809785160C18C491E0904090C56
:1024B000C1840ED017E009880268C1F30801516099
:1024C00001690029016A02D0491C0162ECE7891CFC
:1024D000FBE70168CA6822F08002CA600068C16830
:1024E00041F04001C160002070472DE9F0411E46D7
:1024F000174688460446069D1CE0681C1AD025B184
:10250000FEF73AFB801BA84214D92068C16821F469
:10251000D071C1602068416921F001014161202032
:1025200084F8390084F83A00002084F83800032049
:10253000BDE8F0812068016838EA010004D000207D
:10254000B842DAD00020F3E70120F9E70148FFF7AD
:1025500009B9000064020020FEE7FEE7014A0249D3
:1025600000F0A4B8A127000844000020490050EA68
:10257000C12018BF04204A0D18BF40F0010040F2EE
:10258000FF72B2EB515F08BF40F00200012808BFA4
:10259000052070472DE9F0414F1E00EBC7010446AE
:1025A000D1E9000115461E4637F006020DD02A4635
:1025B0003346FDF792FE7F1E04EBC703D3E90023E9
:1025C000FDF7E4FD37F00602F1D1022F25D0042FEC
:1025D00013D0062F18BFBDE8F0812A463346FDF719
:1025E0007CFED4E90A23FDF7D1FD2A463346FDF7E8
:1025F00074FED4E90823FDF7C9FD2A463346FDF7EA
:102600006CFED4E90623FDF7C1FD2A463346FDF7EB
:1026100064FED4E90423FDF7B9FD2A463346FDF7ED
:102620005CFED4E90223FDF7B1FD2A463346FDF7EF
:1026300054FED4E90023BDE8F041FDF7A7BD00003A
:102640000022134610460149FDF767BF0000F03F26
:10265000FDF79CBD0022134610461146FDF75DBFF5
:1026600040F2013200204FF0E041FDF7C5BF00000D
:10267000024A00201107FDF7BFBF000001FDFFFF68
:1026800002E008C8121F08C1002AFAD1704770473B
:10269000002001E001C1121F002AFBD17047000099
:1026A0000149086070470000480000202DE9F04112
:1026B00016460F460446002503E03946B047641C21
:1026C0006D1C20780028F8D12846BDE8F081000074
:1026D0002DE9F04714460025FDF746FD06005AD0C7
:1026E0002146FDF741FD16F8021FDFF8B0A02D29A5
:1026F00002D0871B002449E0771CC61B002420E081
:10270000301B401EFDF75BFE02460B460020514683
:1027100000F05AF98046385D89463038FDF74FFEA3
:1027200042464B46FDF7D9FD804689462846FDF7CF
:1027300046FE42464B46FDF729FDFDF751FE054694
:10274000641CB442DCDB6D4222E0381B401EFDF706
:1027500036FE02460B460020514600F035F9804611
:10276000305D89463038FDF72AFE42464B46FDF77C
:10277000B4FD804689462846FDF721FE42464B4679
:10278000FDF704FDFDF72CFE0546641CBC42DCDBB6
:102790002846BDE8F0870020FBE700000000244049
:1027A00013B54FF6FF73012269460248FFF722F97D
:1027B00000981CBD64020020FEF7ECF9FFF7CEFB89
:1027C000FFF778F9FFF706FBFFF7A4FAFFF7E4F944
:1027D000FFF740FAFFF7A2F9002211462520FEF785
:1027E00055FA2520FEF746FA002211461920FEF779
:1027F0004DFA1920FEF73EFA01221E491E48FFF746
:1028000097F81E48FEF770FD00211D48FEF786FF71
:1028100004211B48FEF782FF08211948FEF77EFFBE
:102820000C211748FEF77AFF00211648FEF776FFC5
:1028300004211448FEF772FF08211248FEF76EFFCC
:102840000C211048FEF76AFF00210F48FEF766FFD3
:1028500004210D48FEF762FF08210B48FEF75EFFDA
:102860000C210948FEF75AFFFDF75AFFFFF7DAFA85
:10287000FAE7000034000020640200206400002019
:10288000A4000020E4000020240100204D4B10B5DE
:102890001878C1074FF0000016D119465A680C6825
:1028A000C96944F00104002A05DDA2F10A0291423F
:1028B00008DA0A3104E007DA0A32914202DD0A3905
:1028C000D96101E01C60D8611C68A10715D43D499D
:1028D0009A68096A002A05DDA2F10A02914208DA23
:1028E0000A3104E009DA0A32914202DD0A3919623A
:1028F00003E044F00201196018621C68610715D4F6
:102900003049DA68496A002A05DDA2F10A029142DB
:1029100008DA0A3104E009DA0A32914202DD0A39A2
:10292000596203E044F00401196058621C682107F1
:1029300015D424491A69896A002A05DDA2F10A0220
:10294000914208DA0A3104E009DA0A32914202DDE2
:102950000A39996203E044F00801196098621C6822
:10296000E10615D417495A69C96A002A05DDA2F1A2
:102970000A02914208DA0A3104E009DA0A32914285
:1029800002DD0A39D96203E044F010011960D8620F
:102990001C68A1060ED40B499A69096B002A0ADD4E
:1029A000A2F10A02914201DA0A3109E0186344F007
:1029B0002000186010BDFDDA0A329142F6DD0A39B6
:1029C000196310BD000000202DE9F04D1D460C4696
:1029D00098B0174621F0004123F00043002814BFAF
:1029E0004FF0010C4FF0000C0CEB440CFE4A0CEBCA
:1029F00002064FEA620C66452BD33E0018BF012643
:102A000006EB45061644F94A964222D3F84A53EAA1
:102A1000070C02D0944205D148B918B000201146E5
:102A2000BDE8F08D002808BF4FF0000C01D04FF03A
:102A3000010C0CEB440212F5001F0AD8002F14BF42
:102A40004FF0010C4FF0000C0CEB450212F5001F8B
:102A500007D918B03A462B462146BDE8F04DFFF79E
:102A6000F7BD0022DFF88CA3002CB8BF534526DA4F
:102A7000DFF884C36345A8BF022220DADFF870C301
:102A80009C451CDCDFF874C30CEB235CBCF1140F19
:102A900008DDCCF1340627FA06FC0CFA06F6BE4235
:102AA0000DD108E05FB9CCF1140623FA06FC0CFA4C
:102AB00006F69E4203D10CF00102C2F1020251EA75
:102AC000000C19D1002D17DA002C18BF022A01D0F2
:102AD000012A07D00220FFF7E3FD18B0BDE8F04D52
:102AE000FFF7AEBD0220FFF7DBFDFFF7A9FD18B031
:102AF00081F00041BDE8F08DB7F1000C6CD1534579
:102B000025D104F1804212F5801201BF0028002077
:102B1000B74918B008BFBDE8F08DB548884207DC5A
:102B2000002DA1BF6046294618B0BDE8F08D07E032
:102B3000281E05DA80F0004118B06046BDE8F08D2F
:102B4000AF497944D1E9000118B0BDE8F08DDFF854
:102B5000A0C2634525D1002D1FDA19B1514512D10C
:102B6000D8B909E0002840F0EC82A24A214618B00A
:102B700062F31E01BDE8F08D0020214618B060F31D
:102B80001E01BDE8F08D08DA18B02346BDE8F04D0F
:102B9000024600206146FDF7C0BC18B02146BDE8E2
:102BA000F08D514518DAB5F1804F0DD0A5F1005CDC
:102BB000BCF1FF5C10D1B4F1000C0DDB18B0614624
:102BC000BDE8F04D00F000BC234618B00246BDE859
:102BD000F04D1946FDF781BB060024F0004C3BD1B7
:102BE000D9B1514533D1002C06DD002DA1BF002005
:102BF000514618B0BDE8F08D002C01DD002D1BDB27
:102C0000002C13DA002D11DB012A4FF0000014BF55
:102C100078497C4918B0BDE8F08D022A18BF002C15
:102C20000AD0012A08D1002C06DA0AE0002CB8BF2D
:102C3000002D11DA012A04D0002018B00146BDE8A9
:102C4000F08D18B000204FF00041BDE8F08DA1F1EB
:102C50004050B0F17F601AD0012000EBE47050EAE0
:102C6000020421D0624C521E4FF0000B104304BFEF
:102C70004FF0000B644C654883427CDD644A654834
:102C800093421FDD884217DB002D25DB37E0002C47
:102C900000DA4AB1022A0CBF01204FF0FF3018B011
:102CA000BDE8F04DFDF78BBB0120FFF7F9FC18B034
:102CB000BDE8F04DFFF7CEBC4D4A8A4202DC002D44
:102CC0000ADC1CE0814202DA002D18DA04E0484BED
:102CD000994220DD002D12DD0220FFF7E1FCFFF715
:102CE000BFFC05460E460022534658462146FDF7D6
:102CF000F4FA18B066F31E012846BDE8F08D0220F4
:102D0000FFF7CEFCFFF7B4FC0A46214618B062F389
:102D10001E01BDE8F08D002230466146FDF7D7FA6E
:102D200080460E466FF00102FDF766FC4FF055320B
:102D3000394BFDF7CFFA42463346FDF7CEFA002273
:102D4000364BFDF7C7FA8246424633460491104699
:102D50001946FDF7C2FA5246049BFDF7BEFA8A46B1
:102D600000904FF0C0422E4B40463146FDF7B5FA79
:102D70002C4A2B4B00E027E0CDE906015146009894
:102D8000FDF7ABFA82460191274A284B404631466F
:102D9000FDF7A3FA5246019BFDF799FA82460B46CE
:102DA00002460591DDE90601FDF7F0F9DDE90623AC
:102DB000002688463046FDF78AFA5246059BFDF705
:102DC00089FA024600F07EB90020B1F5801F07DACB
:102DD000352230466146FDF70FFC06466FF03400A1
:102DE00000EB215024E00000FFFF1F00FFFF0F0059
:102DF0000000F03F0000F07F0000404301FCFFFFB7
:102E0000720900000000F0FF0000F0BF0000E04188
:102E10000000F043FFFFEF3F5555D53F0000E03F76
:102E20004715F73FFE822B6544DF5DF80BAE543E3D
:102E3000A0F2FF300190C1F3130040F07F6141F038
:102E400040510291FE498842D8BF002004DDFD496F
:102E50008142C8BF012001DD0D9008E000200D90E7
:102E60000198401C01900298A0F5801002900299F0
:102E7000F54878440B910D9900EBC100D0E900238F
:102E80000F9330460A920B99FDF721FACDE906011E
:102E9000DDE90A2130460F9BFDF778F902460B4623
:102EA0000020EA49FDF739FB059102460B460090E8
:102EB000DDE90601FDF711FA1490E5488A464FF066
:102EC000000878440299006812904FF0005040EAE0
:102ED00061010D980F9B01EB804000F500210991E5
:102EE0000A9A1298FDF7F3F932460B9BFDF7F2F9B7
:102EF00042465346FDF7F1F90646029140465146D7
:102F0000099B129AFDF7E9F9DDE90623FDF7E2F9DD
:102F10003246029BFDF7DBF9059B009AFDF7DDF9D0
:102F20000091149A0490534610461946FDF7D5F9BE
:102F300006460246C7480B46029106217844FFF731
:102F400029FBCDE90510029B324610461946FDF7D4
:102F5000C4F9DDE90532FDF7C0F90591064653468F
:102F600040461946149AFDF711F9009B049AFDF7A3
:102F7000B4F93246059BFDF709F9CDE90510424643
:102F8000534610461946FDF7A8F90022B24B0291AC
:102F90000A90FDF7FBF8DDE90532FDF7F7F80E467C
:102FA0004246AD4B4046FDF792F9029B0A9AFDF767
:102FB0008EF9DDE90532FDF78DF9424602910A905E
:102FC000334610465146FDF788F9CDE906015346D0
:102FD000149A02990A98FDF780F98A4602903346BE
:102FE000424600990498FDF778F95346029AFDF796
:102FF000CDF882460B4602460591DDE90601FDF754
:10300000C5F8DDE90623002088460646FDF75FF98E
:103010005246059BFDF75EF9824609914FF06042EA
:103020008E4B30464146FDF758F9049006918C4A84
:103030008A4B50460999FDF750F982460291894A18
:10304000894B30464146FDF748F95246029BFDF751
:103050009DF8864B7B440D9A03EBC203D3E9002312
:10306000FDF794F80E9007910198FDF7A8F90591E6
:10307000DDE9061382460E9A0498FDF787F87C4A2C
:103080007A440D9B02EBC303D3E900230093029221
:10309000FDF77CF85246059BFDF778F80026884638
:1030A00052463046059BFDF712F9009B029AFDF748
:1030B0000EF9069B049AFDF70AF9079B0E9AFDF795
:1030C00009F9024600200B46029038462946FDF7D2
:1030D00004F9824601912B4638461946029AFDF7BB
:1030E000F6F832464346FDF7F8F85246019BFDF7E5
:1030F0004DF807468A463246434629460298FDF770
:10310000ECF805460E463A465346FDF73FF8594A55
:103110008846914221DBA8EB020353EA000210D15A
:103120002A463346FDF7D3F8CDE90401524A534B02
:1031300038465146FDF72AF8DDE90423FDF774FA15
:1031400021D20220FFF7ACFAFFF78AFA0A4621469D
:1031500018B062F31E01BDE8F08D494B28F0004223
:103160009A4210D3474A08EB020353EA00027FF465
:10317000C6AD2A463346FDF7AAF83A465346FDF750
:1031800053FA7FF6BCAD0022019228F000403E4980
:103190003E4A01EB2051824223DA481C4FF4801151
:1031A00021FA00F040443A4AC0F30A517A44394BBC
:1031B000A1F2FF31CB4020EA0303C0F3130040F437
:1031C0008010C1F11401C84012680190B8F1000FDD
:1031D000BCBF4042019028463146FDF778F80546CD
:1031E0000E462A46334638465146FCF7CFFF4FF08D
:1031F00000084246284B40460591FDF76EF8CDE9A0
:103200000601264A264B40460599FDF766F80091CF
:1032100002902A46334640460599FDF758F83A464B
:103220005346FDF757F81F4A1F4BFDF756F8009B12
:10323000029AFCF7ABFF0746884602460B4635E08C
:103240008E9803007AB60B00BA0500000000F03F2C
:10325000F2050000200500000000084009C7EE3F0D
:10326000FD033ADCF5015B14E02F3EBEF8030000DD
:10327000BC03000000009040FE822B654715973C80
:1032800000CC904000346F3F01FCFFFF0000E03FA6
:1032900008030000FFFF0F00432EE63F396CA80C27
:1032A000615C20BEEF39FAFE422EE63FDDE9060101
:1032B000FCF76CFFDDE9062305460E46FDF707F82F
:1032C0003A464346FDF706F80F462A463346009035
:1032D00010461946FDF701F8824602462E488846F8
:1032E0000B4605217844FFF755F952464346FCF753
:1032F000F4FF2A463346FCF7EDFF80468A463B46FC
:1033000028463146009AFCF7E8FF3B46009AFCF756
:103310003DFF0691009000224FF080434046514609
:10332000FCF7D5FF0F460C904246534628463146DF
:10333000FCF7D3FF3B460C9AFDF7EFF8069B009A8B
:10334000FCF7C5FF2A463346FCF7C1FF0022134BAA
:10335000FCF7C0FF054601980E4601EB0051081529
:10336000002810DC28463146019AFDF745F9FFF7A1
:10337000FDF8042808BFFFF77BF928463146019A7B
:10338000FDF73AF905460B4618B02A46584621463D
:10339000BDE8F04DFCF7A1BFA80100000000F03F20
:1033A00030B564290CDC0022064C012505FA02F335
:1033B0000340134101D044F82210521C052AF5DDC8
:1033C00030BD00004C0000202DE9F04106460F46BC
:1033D000FDF754F9041E0D4618BF0120284320F0C4
:1033E0000040C0F17F6000F1E040C00F0ED0301C03
:1033F00018BF0120384320F00040C0F17F6000F189
:10340000E040C00F04BF0120FFF74AF920462946DB
:10341000BDE8F0810000000000000000010203048C
:103420000607080900000000010203040000000074
:10343000000000000000F03F000000000000F83F26
:1034400000000000000000000000004003B8E23F60
:10345000000000000000000006D0CF43EBFD4C3E12
:10346000033333333333E33FFFAB6FDBB66DDB3F07
:103470004D268F515555D53F01411DA96074D13F4F
:1034800065DBC9934A86CD3FEF4E454A287ECA3F49
:103490003E5555555555C53F93BDBE166CC166BFCB
:1034A0002CDE25AF6A56113FF16BD2C541BDBBBEC4
:1034B000D0A4BE726937663E000000000000000024
:1034C000E0340008000000204C00000080260008C6
:1034D0002C3500084C0000205C06000090260008F7
:1034E000FF000000000000000000000000000000DD
:1034F00000000000000000000000000000000000CC
:1035000000000000000000000000000000000000BB
:1035100000000000000000000000000000000000AB
:0C35200000A24A040000000000000000AF
:04000005080000ED02
:00000001FF
